:100000000C9434000C94C9000C9451000C945100D1
:100010000C9451000C9451000C9451000C9451001C
:100020000C9451000C9451000C9451000C9451000C
:100030000C9451000C9451000C94E3000C9451006A
:100040000C9451000C9451000C9451000C945100EC
:100050000C9451000C948D000C9451000C945100A0
:100060000C9451000C94510011241FBECFEFD8E026
:10007000DEBFCDBF11E0A0E0B1E0E4E3F4E002C0F8
:1000800005900D92A230B107D9F721E0A2E0B1E0CE
:1000900001C01D92A132B207E1F70E94D5010C9474
:1000A00018020C940000E9E0F1E08BE290E091830B
:1000B000808328E022839583848330E2368391878E
:1000C000808780E4828785E290E09587848732E0AC
:1000D0003687918B808B34E0328B958B848B268B8B
:1000E0008AB188668AB984B18E6084B980E090E074
:1000F000FC01FF27EE0FFF1FEE0FFF1FE75FFE4F14
:100100001382A081B1813C912281209523232C93DD
:1001100001968630910561F708951F920F920FB6F0
:100120000F9211242F938F939F93EF93FF93F89443
:1001300080917C008F70813089F4809178002091CB
:10014000790090E0922B92509093080180930701E0
:10015000ECE7F0E08081807F808310C080917800A0
:100160002091790090E0922B9093060180930501F5
:10017000ECE7F0E08081807F816080837894FF915C
:10018000EF919F918F912F910F900FBE0F901F9025
:1001900018951F920F920FB60F9211242F938F93E1
:1001A0009F93809103019091040121E08227909315
:1001B0000401809303019F918F912F910F900FBEA7
:1001C0000F901F9018951F920F920FB60F92112447
:1001D0002F933F938F939F93AF93BF93EF93FF938F
:1001E000F894E9E0F1E021E231E08381882331F005
:1001F000A081B1819C91828189278C933496E217EA
:10020000F30799F77894FF91EF91BF91AF919F9188
:100210008F913F912F910F900FBE0F901F901895C7
:10022000ECE7F0E01082808180648083EAE7F0E010
:10023000808184608083808182608083808181600E
:10024000808380818062808310927B0080818068BF
:1002500080838081886080838081806480835298DD
:100260005A9AE9E6F0E0808181608083E89A82E32F
:1002700087BD84B5826084BDEEE6F0E08081826057
:10028000808385B5846085BD78940E94DA010E94E0
:1002900053000895009769F020E030E0EFE9FFE0B7
:1002A0003197F1F700C000002F5F3F4F821793078F
:1002B000A9F70895809105019091060199230CF406
:1002C0000396959587959595879587BD80910701AC
:1002D000909108018B3F9F4F84F410920001809110
:1002E0000701909108016AE070E00E94F00180E34C
:1002F00098EF0E94F0019B0119C080910701909135
:10030000080106978CF081E080930001809107013D
:10031000909108016AE070E00E94F00180ED97E0A2
:100320000E94F0019B0102C020ED37E0E091020144
:10033000F0E0EE0FFF1FEE0FFF1FE75FFE4F13828F
:10034000A081B1819C918281809589238C93809139
:100350000001882359F08091020190E0059666E043
:1003600070E00E94F001809302010AC080910201B6
:1003700090E0019666E070E00E94F0018093020137
:10038000E0910201F0E0EE0FFF1FEE0FFF1FE75FAD
:10039000FE4F81E08383A081B1819C918281892B72
:1003A0008C93C9010E944A0108950E9410010E9485
:1003B0005A01FDCF1092C50087E68093C400E1EC9E
:1003C000F0E0808180618083808188608083E2ECBE
:1003D000F0E08081846080838081826080830895E2
:1003E00097FB072E16F4009407D077FD09D00E94E2
:1003F000040207FC05D03EF4909581959F4F089527
:10040000709561957F4F0895AA1BBB1B51E107C0F2
:10041000AA1FBB1FA617B70710F0A61BB70B881F94
:10042000991F5A95A9F780959095BC01CD01089523
:04043000F894FFCF6E
:020434000100C5
:00000001FF
