:100000000C9434000C9451000C9451000C94510049
:100010000C9451000C9451000C9451000C9451001C
:100020000C9451000C9451000C9451000C9450010C
:100030000C9451000C9451000C9451000C945100FC
:100040000C9451000C9451000C9451000C945100EC
:100050000C9451000C94EF000C9451000C9451003E
:100060000C9451000C94510011241FBECFEFD8E026
:10007000DEBFCDBF11E0A0E0B1E0ECE0F5E002C0F2
:1000800005900D92A430B107D9F721E0A4E0B1E0CA
:1000900001C01D92A632B207E1F70E9457020C94EC
:1000A00084020C9400008FEF90E09093890080937D
:1000B000880081E090E090938B0080938A00E0E8D4
:1000C000F0E0808182608083EFE6F0E080818260F2
:1000D0008083E1E8F0E0808181608083AEE0B1E080
:1000E0008BE290E011969C938E9312961C9212973D
:1000F00085E290E014969C938E93139715961C922C
:100100001597E4E1F1E0B183A08328E02283B48372
:10011000A38380E28583B783A68380E4808781E11F
:1001200091E09287818732E033879587848734E036
:100130003687908B8787218B8AB188668AB984B18C
:100140008E6084B980E090E0FC01FF279F01220FC0
:10015000331FE20FF31FEC5EFE4FA081B1811296B8
:100160003C91129722812095232312962C9301967D
:100170008630910549F7E0910701F0E0CF01880F43
:10018000991FE80FF91FEC5EFE4FA081B181129616
:100190009C9112978281892B12968C930895ECE79B
:1001A000F0E01082808180648083EAE7F0E0808163
:1001B000846080838081826080838081816080838D
:1001C00080818062808310927B0080818068808340
:1001D00080818860808380818064808308951F92FD
:1001E0000F920FB60F9211242F938F939F93EF933B
:1001F000FF938091780020917900909104019130D3
:10020000D9F590E0922B20917C002F70213061F481
:10021000925090930D0180930C01ECE7F0E0808107
:10022000807F8560808328C020917C002F702530DE
:1002300051F49093090180930801ECE7F0E080818C
:10024000807F808319C090930B0180930A01809175
:100250000A0190910B0199230CF4039695958795CB
:10026000959587959093010180930001ECE7F0E06C
:100270008081807F81608083809104018F5F8230E4
:1002800018F48093040102C010920401FF91EF91D1
:100290009F918F912F910F900FBE0F901F901895E7
:1002A0001F920F920FB60F9211242F933F934F93EB
:1002B0005F936F937F938F939F93AF93BF93CF93EE
:1002C000DF93EF93FF9380910501909106010196D2
:1002D0008F3F910528F4909306018093050104C097
:1002E00010920601109205014091050150910601FE
:1002F0002091000130910101EEE0F1E080E090E01A
:100300004217530768F4C081D181DC01AA0FBB1FDB
:10031000A80FB91FA25FBE4F12966C9168830FC0E1
:10032000DC01AA0FBB1FA80FB91FA25FBE4F129618
:100330006C91A081B1817C91609567236C9301964B
:10034000339682309105E1F6FF91EF91DF91CF91E5
:10035000BF91AF919F918F917F916F915F914F91DD
:100360003F912F910F900FBE0F901F9018950E94F4
:10037000CF000E945300789408950097D9F02091FF
:10038000080130910901283E3340A4F020E030E01C
:10039000EFE9FFE03197F1F700C000002F5F3F4F1A
:1003A0008217930739F04091080150910901483EA6
:1003B000534074F708958091080190910901883E97
:1003C00093400CF473C080910C0190910D01863F15
:1003D0009F4F9CF41092020180910C0190910D01AD
:1003E0009195819591096AE070E00E945C0280ED30
:1003F00097E00E945C029B0119C080910C019091D2
:100400000D010B978CF081E08093020180910C012B
:1004100090910D016AE070E00E945C0280ED97E02F
:100420000E945C029B0102C020ED37E08091070131
:10043000E82FF0E0AF01440F551FE40FF51FEC5E0D
:10044000FE4FA081B18112964C91129792819095A6
:10045000942312969C9390910201992349F090E085
:10046000059666E070E00E945C028093070108C078
:1004700090E0019666E070E00E945C0280930701C4
:10048000E0910701F0E0CF01880F991FE80FF91FF5
:10049000EC5EFE4FA081B18112969C9112978281F1
:1004A000892B12968C93C9010E94BD0108950E9468
:1004B000B7010E94DB01FDCF97FB072E16F40094D5
:1004C00007D077FD09D00E94700207FC05D03EF4EA
:1004D000909581959F4F0895709561957F4F0895F0
:1004E000AA1BBB1B51E107C0AA1FBB1FA617B7075A
:1004F00010F0A61BB70B881F991F5A95A9F7809576
:0C0500009095BC01CD010895F894FFCF48
:04050C000A000100E0
:00000001FF
