S0150000417566676162655F65787472612E73726563E1
S11300000C9434000C9451000C9451000C94510045
S11300100C9451000C9451000C9451000C94510018
S11300200C9451000C9451000C9451000C9419013F
S11300300C9451000C9451000C9451000C945100F8
S11300400C9451000C9451000C9451000C945100E8
S11300500C9451000C94C9000C9451000C94510060
S11300600C9451000C94510011241FBECFEFD8E022
S1130070DEBFCDBF11E0A0E0B1E0E4EBF4E002C0EC
S113008005900D92A630B107D9F721E0A6E0B1E0C2
S113009001C01D92AB32B207E1F70E942B020C940F
S11300A058020C9400008FEF90E0909389008093A5
S11300B0880081E090E090938B0080938A00E0E8D0
S11300C0F0E0808182608083EFE6F0E080818260EE
S11300D08083E1E8F0E0808181608083ADE0B1E07D
S11300E08BE290E011969C938E9312961C92129739
S11300F085E290E014969C938E93139715961C9228
S11301001597E3E1F1E0B183A08328E02283B5836E
S1130110A48380E28683B187A08780E4828780E11C
S113012091E09587848732E03687918B808B34E029
S1130130328B958B848B268B8AB188668AB984B17D
S11301408E6084B980E090E0FC01FF27EE0FFF1F72
S1130150EE0FFF1FED5EFE4F1382A081B181129658
S11301603C91129722812095232312962C93019679
S11301708630910549F7E3E1F1E081E08383A081D2
S1130180B18112969C9112978281892B12968C933D
S113019008951F920F920FB60F9211242F935F931D
S11301A06F937F938F939F93AF93BF93EF93FF933B
S11301B080917C008F70813089F480917800209147
S11301C0790090E0922B925090930C0180930B0154
S11301D0ECE7F0E08081807F80831CC08091780010
S11301E02091790090E0922B90930A018093090169
S11301F08091090190910A0165E070E00E9430024B
S11302007093010160930001ECE7F0E08081807F4E
S113021081608083FF91EF91BF91AF919F918F9106
S11302207F916F915F912F910F900FBE0F901F9050
S113023018951F920F920FB60F9211242F933F938C
S11302404F935F936F937F938F939F93AF93BF93DA
S1130250CF93DF93EF93FF93809106019091070171
S11302600196909307018093060120910201309139
S113027003018217930720F01092070110920601E0
S11302804091060150910701209100013091010134
S1130290EDE0F1E080E090E04217530768F4C0819C
S11302A0D181DC01AA0FBB1FA80FB91FA35FBE4FEA
S11302B012966C9168830FC0DC01AA0FBB1FA80FB4
S11302C0B91FA35FBE4F12966C91A081B1817C913E
S11302D0609567236C930196339682309105E1F61D
S11302E0FF91EF91DF91CF91BF91AF919F918F914A
S11302F07F916F915F914F913F912F910F900FBE1E
S11303000F901F901895ECE7F0E0108280818064D4
S11303108083EAE7F0E0808184608083808182606A
S11303208083808181608083808180628083109259
S11303307B00808180688083808188608083808165
S11303408064808308950E9483010E9453007894FE
S11303500895009769F020E030E0EFE9FFE031977D
S1130360F1F700C000002F5F3F4F82179307A9F7F2
S1130370089580910B0190910C01863F9F4F84F466
S11303801092040180910B0190910C016AE070E0DD
S11303900E94300280E398EF0E9430029B0119C052
S11303A080910B0190910C010B978CF081E080936C
S11303B0040180910B0190910C016AE070E00E94AD
S11303C0300280ED97E00E9430029B0102C020EDD4
S11303D037E080910801E82FF0E0EE0FFF1FEE0FE9
S11303E0FF1FED5EFE4F1382A081B18112964C91E6
S11303F0129792819095942312969C939091040164
S1130400992349F090E0059666E070E00E9430027E
S11304108093080108C090E0019666E070E00E94B5
S1130420300280930801E0910801F0E0EE0FFF1F15
S1130430EE0FFF1FED5EFE4F81E08383A081B1814B
S113044012969C9112978281892B12968C93C901E2
S11304500E94A90108950E94A3010E94B901FDCF41
S113046097FB072E16F4009407D077FD09D00E945D
S1130470440207FC05D03EF4909581959F4F089562
S1130480709561957F4F0895AA1BBB1B51E107C06E
S1130490AA1FBB1FA617B70710F0A61BB70B881F10
S11304A0991F5A95A9F780959095BC01CD0108959F
S10704B0F894FFCFEA
S10904B40A00C80001006B
S9030000FC
