:100000000C9434000C946D000C9451000C9451002D
:100010000C9451000C9451000C9451000C9451001C
:100020000C9451000C9451000C9451000C9451000C
:100030000C9451000C9451000C9451000C945100FC
:100040000C9451000C9451000C9451000C945100EC
:100050000C9451000C9453000C9451000C945100DA
:100060000C9451000C94510011241FBECFEFD8E026
:10007000DEBFCDBF11E0A0E0B1E0ECEFF2E002C0E6
:1000800005900D92A232B107D9F721E0A2E2B1E0CA
:1000900001C01D92A732B207E1F70E940A010C9439
:1000A0007C010C9400001F920F920FB60F92112446
:1000B0002F938F939F93809178002091790090E007
:1000C000922B90932601809325019F918F912F91E0
:1000D0000F900FBE0F901F9018951F920F920FB6A2
:1000E0000F9211242F938F939F93809123019091CE
:1000F000240121E0822790932401809323019F9182
:100100008F912F910F900FBE0F901F901895ECE7D5
:10011000F0E01082808180648083EAE7F0E08081F3
:10012000846080838081826080838081816080831D
:1001300080818062808310927B00808180688083D0
:1001400080818860808380818064808352985A9AFD
:10015000E9E6F0E0808181608083E89A78940E94EB
:100160000F010895CF93DF93CDB7DEB72A970FB66F
:10017000F894DEBF0FBECDBF80912501909126017E
:100180004AE050E0BE016F5F7F4F0E943C018091CA
:10019000220180FF05C080E091E00E942D0104C093
:1001A0008AE091E00E942D01CE0101960E942D016E
:1001B00080912301909124014AE050E0BE016F5FDD
:1001C0007F4F0E943C0184E191E00E942D01CE010D
:1001D00001960E942D018FE191E00E942D01ECE734
:1001E000F0E0908181E089278083808180932201E3
:1001F0002FEF89E698E1215080409040E1F700C060
:1002000000002A960FB6F894DEBF0FBECDBFDF9177
:10021000CF9108950E9487000E94B200FDCF1092F6
:10022000C50087E68093C400E1ECF0E08081806146
:100230008083808188608083E2ECF0E0808184604C
:1002400080838081826080830895E0ECF0E090817B
:1002500095FFFDCF8093C6000895CF93DF93EC0107
:100260008881882331F021960E942501899181118E
:10027000FBCFDF91CF9108954532510520F44230F4
:1002800010F00C944701FB011082CB010895BB27AD
:100290004A3031F4992322F4BDE2909581959F4F25
:1002A0000C945301BB27FB015527AA27880F991FE0
:1002B000AA1FA41710F0A41B83955051B9F7A05D95
:1002C000AA3308F0A95DA193009779F7B111B19312
:1002D0001192CB010C946C01DC01FC01672F719130
:1002E0007723E1F7329704C07C916D93708362911C
:0C02F000AE17BF07C8F30895F894FFCFC5
:1002FC00506F746920313A202000506F746920329D
:10030C003A2020000A0D427574746F6E3A20000A70
:02031C000D00D2
:00000001FF
