S01B0000417566676162655F345F6B616D6D6572746F6E2E737265639E
S11300000C9434000C9440000C944E000C943E006C
S11300100C943E000C943E000C943E000C943E0064
S11300200C943E000C943E000C943E000C943E0054
S11300300C943E000C943E000C945C000C943E0026
S11300400C943E000C943E000C943E000C943E0034
S11300500C943E000C943E000C943E000C943E0024
S11300600C943E000C943E0011241FBECFEFD8E048
S1130070DEBFCDBF0E9490000C9493000C9400004E
S11300801F920F920FB60F9211248F9386E487BDAF
S11300908F910F900FBE0F901F9018951F920F9283
S11300A00FB60F9211248F9388E787BD8F910F901D
S11300B00FBE0F901F9018951F920F920FB60F92BC
S11300C011248F939F939BB180E489278BB99F91CF
S11300D08F910F900FBE0F901F901895569A88E736
S11300E087BD84B5806884BD84B5816084BD84B5D2
S11300F0826084BD84B5886084BD85B5846085BD17
S1130100529853985A9A5B9AE9E6F0E080818160AC
S11301108083808184608083E89AE99A7894089542
S10D01200E946E00FFCFF894FFCF99
S9030000FC
