S0110000417566676162655F312E73726563D8
S11300000C9434000C943E000C943E000C943E007E
S11300100C943E000C943E000C943E000C943E0064
S11300200C943E000C943E000C943E000C943E0054
S11300300C943E000C943E000C943E000C943E0044
S11300400C943E000C943E000C943E000C943E0034
S11300500C943E000C943E000C943E000C943E0024
S11300600C943E000C943E0011241FBECFEFD8E048
S1130070DEBFCDBF0E9440000C9476000C940000BB
S11300800E9445000E944900FDCF249A239A229A97
S113009008952C9A2FEF83ED90E3215080409040F7
S11300A0E1F700C000002B9A2FEF81EE94E021507D
S11300B080409040E1F700C000002C982B982A9AC9
S11300C02FEF83ED90E3215080409040E1F700C092
S11300D000002A982B9A2FEF81EE94E02150804063
S11300E09040E1F700C000002B980895F894FFCFEA
S9030000FC
