S0110000417566676162655F362E73726563D3
S11300000C9434000C9451000C9451000C94510045
S11300100C9451000C9451000C9451000C94510018
S11300200C9451000C9451000C9451000C94510008
S11300300C9451000C9451000C9451000C945100F8
S11300400C9451000C9451000C9451000C945100E8
S11300500C9451000C9458000C9451000C945100D1
S11300600C9451000C94510011241FBECFEFD8E022
S1130070DEBFCDBF11E0A0E0B1E0E0E6F2E002C0F7
S113008005900D92AE30B107D9F721E0AEE0B1E0B2
S113009001C01D92AF30B207E1F70E9453000C94E7
S11300A02E010C9400000E9499000E94BC00FDCF18
S11300B01F920F920FB60F9211248F939F938091EA
S11300C078009091790080930E019F918F910F9009
S11300D00FBE0F901F9018951092C50087E680936D
S11300E0C400E1ECF0E080818061808380818860DD
S11300F08083E2ECF0E08081846080838081826090
S113010080830895E0ECF0E0908195FFFDCF80932B
S1130110C6000895CF93DF93EC018881882331F0E2
S113012021960E94820089918111FBCFDF91CF91AA
S11301300895ECE7F0E01082808180648083EAE730
S1130140F0E080818460808380818260808380810C
S11301508160808380818062808310927B008081B3
S113016080688083808188608083808180648083CC
S113017078940E946C000895CF93DF93CDB7DEB7D7
S11301802A970FB6F894DEBF0FBECDBF80910E0143
S11301904AE050E0BE016F5F7F4F90E00E94EE00A6
S11301A080E091E00E948A00CE0101960E948A00BC
S11301B08AE091E00E948A002FEF89E698E12150BD
S11301C080409040E1F700C000002A960FB6F894F2
S11301D0DEBF0FBECDBFDF91CF91089545325105EB
S11301E020F4423010F00C94F900FB011082CB0192
S11301F00895BB274A3031F4992322F4BDE2909547
S113020081959F4F0C940501BB27FB015527AA2715
S1130210880F991FAA1FA41710F0A41B839550518F
S1130220B9F7A05DAA3308F0A95DA193009779F707
S1130230B111B1931192CB010C941E01DC01FC01AC
S1130240672F71917723E1F7329704C07C916D9306
S113025070836291AE17BF07C8F30895F894FFCF77
S1110260506F746920313A2020000A0A000011
S9030000FC
