S0110000417566676162655F362E73726563D3
S11300000C9434000C9451000C9451000C94510045
S11300100C9451000C9451000C9451000C94510018
S11300200C9451000C9451000C9451000C94510008
S11300300C9451000C9451000C9451000C945100F8
S11300400C9451000C9451000C9451000C945100E8
S11300500C9451000C9458000C9451000C945100D1
S11300600C9451000C94510011241FBECFEFD8E022
S1130070DEBFCDBF11E0A0E0B1E0EEE6F2E002C0E9
S113008005900D92AE30B107D9F721E0AEE0B1E0B2
S113009001C01D92A031B207E1F70E9453000C94F5
S11300A035010C9400000E9472000E949500FDCF5F
S11300B01F920F920FB60F9211242F938F939F9339
S11300C0809178002091790090E0922B90930F0119
S11300D080930E019F918F912F910F900FBE0F90DF
S11300E01F901895ECE7F0E0108280818064808393
S11300F0EAE7F0E08081846080838081826080838D
S113010080818160808380818062808310927B0003
S1130110808180688083808188608083808180641E
S1130120808378940E94C8000895CF93DF93CDB75D
S1130130DEB72A970FB6F894DEBF0FBECDBF80910D
S11301400E0190910F014AE050E0BE016F5F7F4FB6
S11301500E94F50080E091E00E94E600CE01019645
S11301600E94E6008AE091E00E94E6002FEF89E613
S113017098E1215080409040E1F700C000002A96A9
S11301800FB6F894DEBF0FBECDBFDF91CF910895B7
S11301901092C50087E68093C400E1ECF0E0808112
S11301A080618083808188608083E2ECF0E08081DC
S11301B0846080838081826080830895E0ECF0E035
S11301C0908195FFFDCF8093C6000895CF93DF9370
S11301D0EC018881882331F021960E94DE00899108
S11301E08111FBCFDF91CF9108954532510520F461
S11301F0423010F00C940001FB011082CB010895F1
S1130200BB274A3031F4992322F4BDE290958195BD
S11302109F4F0C940C01BB27FB015527AA27880F7D
S1130220991FAA1FA41710F0A41B83955051B9F766
S1130230A05DAA3308F0A95DA193009779F7B111E5
S1130240B1931192CB010C942501DC01FC01672FC1
S113025071917723E1F7329704C07C916D93708399
S11102606291AE17BF07C8F30895F894FFCF5C
S111026E506F746920313A2020000A0D000000
S9030000FC
