S01F0000417566676162655F355F627265617468696E675F6C65642E737265631F
S11300000C9434000C943E000C943E000C943E007E
S11300100C943E000C943E000C943E000C943E0064
S11300200C943E000C943E000C943E000C943E0054
S11300300C943E000C943E000C943E000C943E0044
S11300400C943E000C943E000C943E000C943E0034
S11300500C943E000C943E000C943E000C943E0024
S11300600C943E000C943E0011241FBECFEFD8E048
S1130070DEBFCDBF0E946C000C9471000C94000094
S1130080219A17BC84B5806884BD84B5826084BD20
S113009084B5816084BD84B5886084BD85B5826083
S11300A085BD089580E090E087BDEFE3FCE93197DA
S11300B0F1F700C0000001968115F1E09F07A1F758
S11300C08FEF90E087BDEFE3FCE93197F1F700C0D3
S11300D000000197B8F708950E9440000E94520062
S10900E0FDCFF894FFCFF0
S9030000FC
