:100000000C9434000C9451000C9451000C94510049
:100010000C9451000C9451000C9451000C9451001C
:100020000C9451000C9451000C9451000C9451000C
:100030000C9451000C9451000C9451000C945100FC
:100040000C9451000C9451000C9451000C945100EC
:100050000C9451000C9453000C9451000C945100DA
:100060000C9451000C94510011241FBECFEFD8E026
:10007000DEBFCDBF11E0A0E0B1E0E2E8F2E002C0F7
:1000800005900D92A831B107D9F721E0A8E1B1E0C0
:1000900001C01D92AA31B207E1F70E94CD000C9475
:1000A0003F010C9400001F920F920FB60F92112483
:1000B0008F9380917900809319018F910F900FBEDB
:1000C0000F901F901895ECE7F0E01082808180641B
:1000D0008083808180628083EAE7F0E080818460B1
:1000E0008083808182608083808181608083808141
:1000F0008062808310927B00808180688083808111
:100100008860808380818064808378940E94D2009C
:100110000895CF93DF93CDB7DEB72A970FB6F89443
:10012000DEBF0FBECDBF809119014AE050E0BE0195
:100130006F5F7F4F90E00E94FF008091180180FF69
:1001400005C080E091E00E94F00004C08AE091E0E8
:100150000E94F000CE0101960E94F00084E191E03F
:100160000E94F000ECE7F0E0908181E08927808335
:100170008081809318012FEF89E698E1215080401B
:100180009040E1F700C000002A960FB6F894DEBF59
:100190000FBECDBFDF91CF9108950E9463000E94F2
:1001A0008900FDCF1092C50087E68093C400E1EC82
:1001B000F0E0808180618083808188608083E2ECD0
:1001C000F0E08081846080838081826080830895F4
:1001D000E0ECF0E0908195FFFDCF8093C60008959C
:1001E000CF93DF93EC018881882331F021960E9420
:1001F000E80089918111FBCFDF91CF9108954532BD
:10020000510520F4423010F00C940A01FB011082D9
:10021000CB010895BB274A3031F4992322F4BDE283
:10022000909581959F4F0C941601BB27FB01552794
:10023000AA27880F991FAA1FA41710F0A41B839543
:100240005051B9F7A05DAA3308F0A95DA1930097BA
:1002500079F7B111B1931192CB010C942F01DC010C
:10026000FC01672F71917723E1F7329704C07C91ED
:100270006D9370836291AE17BF07C8F30895F89429
:02028000FFCFAE
:10028200506F746920313A202000506F7469203217
:080292003A2020000A0D0000D3
:00000001FF
