:100000000C9434000C943E000C943E000C943E0082
:100010000C943E000C943E000C943E000C943E0068
:100020000C943E000C943E000C943E000C943E0058
:100030000C943E000C943E000C943E000C943E0048
:100040000C943E000C943E000C943E000C943E0038
:100050000C943E000C943E000C943E000C943E0028
:100060000C943E000C943E0011241FBECFEFD8E04C
:10007000DEBFCDBF0E9466000C946B000C940000A4
:1000800084B18F6384B9289A08952D990EC02FEFFB
:1000900089E698E1215080409040E1F700C00000DF
:1000A00085B1880F85B92D9BF2CF28990EC02FEF0F
:1000B00089E698E1215080409040E1F700C00000BF
:1000C00085B1869585B9289BF2CF08950E9440009E
:0A00D0000E944500FDCFF894FFCF19
:00000001FF
